{
  "_format": "hh-sol-artifact-1",
  "contractName": "SimpleVoting",
  "sourceName": "contracts/Lock.sol",
  "abi": [
    {
      "inputs": [],
      "stateMutability": "nonpayable",
      "type": "constructor"
    },
    {
      "inputs": [
        {
          "internalType": "address",
          "name": "voteraddress",
          "type": "address"
        },
        {
          "internalType": "string",
          "name": "authorizedvoter",
          "type": "string"
        }
      ],
      "name": "notvalidvoter",
      "type": "error"
    },
    {
      "inputs": [],
      "name": "Proposal",
      "outputs": [
        {
          "internalType": "string",
          "name": "name",
          "type": "string"
        },
        {
          "internalType": "uint256",
          "name": "id",
          "type": "uint256"
        },
        {
          "internalType": "uint256",
          "name": "votecount",
          "type": "uint256"
        }
      ],
      "stateMutability": "view",
      "type": "function"
    },
    {
      "inputs": [],
      "name": "Voter",
      "outputs": [
        {
          "internalType": "uint256",
          "name": "id",
          "type": "uint256"
        },
        {
          "internalType": "bool",
          "name": "hasvoted",
          "type": "bool"
        }
      ],
      "stateMutability": "view",
      "type": "function"
    },
    {
      "inputs": [
        {
          "internalType": "address",
          "name": "_addr",
          "type": "address"
        },
        {
          "internalType": "string",
          "name": "_name",
          "type": "string"
        },
        {
          "internalType": "uint256",
          "name": "_id",
          "type": "uint256"
        }
      ],
      "name": "addProposal",
      "outputs": [],
      "stateMutability": "nonpayable",
      "type": "function"
    },
    {
      "inputs": [
        {
          "internalType": "address",
          "name": "_voteraddress",
          "type": "address"
        },
        {
          "internalType": "uint256",
          "name": "_id",
          "type": "uint256"
        },
        {
          "internalType": "bool",
          "name": "_hasvoted",
          "type": "bool"
        }
      ],
      "name": "addVoter",
      "outputs": [],
      "stateMutability": "nonpayable",
      "type": "function"
    },
    {
      "inputs": [
        {
          "internalType": "address",
          "name": "_voteraddress",
          "type": "address"
        },
        {
          "internalType": "address",
          "name": "proposaladdress",
          "type": "address"
        }
      ],
      "name": "castVote",
      "outputs": [],
      "stateMutability": "nonpayable",
      "type": "function"
    },
    {
      "inputs": [],
      "name": "getWinningProposal",
      "outputs": [
        {
          "internalType": "string",
          "name": "winnername",
          "type": "string"
        },
        {
          "internalType": "uint256",
          "name": "votecount",
          "type": "uint256"
        }
      ],
      "stateMutability": "view",
      "type": "function"
    },
    {
      "inputs": [],
      "name": "owner",
      "outputs": [
        {
          "internalType": "address",
          "name": "",
          "type": "address"
        }
      ],
      "stateMutability": "view",
      "type": "function"
    },
    {
      "inputs": [
        {
          "internalType": "uint256",
          "name": "",
          "type": "uint256"
        }
      ],
      "name": "proposal_details",
      "outputs": [
        {
          "internalType": "string",
          "name": "name",
          "type": "string"
        },
        {
          "internalType": "uint256",
          "name": "id",
          "type": "uint256"
        },
        {
          "internalType": "uint256",
          "name": "votecount",
          "type": "uint256"
        }
      ],
      "stateMutability": "view",
      "type": "function"
    },
    {
      "inputs": [
        {
          "internalType": "address",
          "name": "",
          "type": "address"
        }
      ],
      "name": "proposals",
      "outputs": [
        {
          "internalType": "string",
          "name": "name",
          "type": "string"
        },
        {
          "internalType": "uint256",
          "name": "id",
          "type": "uint256"
        },
        {
          "internalType": "uint256",
          "name": "votecount",
          "type": "uint256"
        }
      ],
      "stateMutability": "view",
      "type": "function"
    },
    {
      "inputs": [
        {
          "internalType": "uint256",
          "name": "",
          "type": "uint256"
        }
      ],
      "name": "validvoter",
      "outputs": [
        {
          "internalType": "address",
          "name": "",
          "type": "address"
        }
      ],
      "stateMutability": "view",
      "type": "function"
    },
    {
      "inputs": [
        {
          "internalType": "address",
          "name": "",
          "type": "address"
        }
      ],
      "name": "voters",
      "outputs": [
        {
          "internalType": "uint256",
          "name": "id",
          "type": "uint256"
        },
        {
          "internalType": "bool",
          "name": "hasvoted",
          "type": "bool"
        }
      ],
      "stateMutability": "view",
      "type": "function"
    }
  ],
  "bytecode": "0x6080604052348015600f57600080fd5b50336000806101000a81548173ffffffffffffffffffffffffffffffffffffffff021916908373ffffffffffffffffffffffffffffffffffffffff1602179055506115d68061005f6000396000f3fe608060405234801561001057600080fd5b50600436106100a95760003560e01c8063a513462011610071578063a51346201461017d578063b77ac51c1461019c578063c4d7841a146101cc578063e3b7ebb4146101ec578063f3a1a46614610208578063fa193a6e14610224576100a9565b80633341b445146100ae578063838d2c29146100e05780638da5cb5b146100fc578063a29437231461011a578063a3ec138d1461014c575b600080fd5b6100c860048036038101906100c39190610bec565b610243565b6040516100d793929190610cc2565b60405180910390f35b6100fa60048036038101906100f59190610d00565b6102f5565b005b6101046104cd565b6040516101119190610d4f565b60405180910390f35b610134600480360381019061012f9190610d96565b6104f1565b60405161014393929190610cc2565b60405180910390f35b61016660048036038101906101619190610bec565b6105b3565b604051610174929190610dde565b60405180910390f35b6101856105e4565b604051610193929190610e07565b60405180910390f35b6101b660048036038101906101b19190610d96565b61076f565b6040516101c39190610d4f565b60405180910390f35b6101d46107ae565b6040516101e393929190610cc2565b60405180910390f35b61020660048036038101906102019190610e63565b61084e565b005b610222600480360381019061021d9190610feb565b6109e6565b005b61022c610b5b565b60405161023a929190610dde565b60405180910390f35b600260205280600052604060002060009150905080600001805461026690611089565b80601f016020809104026020016040519081016040528092919081815260200182805461029290611089565b80156102df5780601f106102b4576101008083540402835291602001916102df565b820191906000526020600020905b8154815290600101906020018083116102c257829003601f168201915b5050505050908060010154908060020154905083565b60005b6008805490508110156104c85760088181548110610319576103186110ba565b5b9060005260206000200160009054906101000a900473ffffffffffffffffffffffffffffffffffffffff1673ffffffffffffffffffffffffffffffffffffffff168373ffffffffffffffffffffffffffffffffffffffff16036104bb57600160008473ffffffffffffffffffffffffffffffffffffffff1673ffffffffffffffffffffffffffffffffffffffff16815260200190815260200160002060010160009054906101000a900460ff1615610406576040517f08c379a00000000000000000000000000000000000000000000000000000000081526004016103fd90611135565b60405180910390fd5b6001600260008473ffffffffffffffffffffffffffffffffffffffff1673ffffffffffffffffffffffffffffffffffffffff16815260200190815260200160002060020160008282546104599190611184565b9250508190555060018060008573ffffffffffffffffffffffffffffffffffffffff1673ffffffffffffffffffffffffffffffffffffffff16815260200190815260200160002060010160006101000a81548160ff0219169083151502179055505b80806001019150506102f8565b505050565b60008054906101000a900473ffffffffffffffffffffffffffffffffffffffff1681565b6009818154811061050157600080fd5b906000526020600020906003020160009150905080600001805461052490611089565b80601f016020809104026020016040519081016040528092919081815260200182805461055090611089565b801561059d5780601f106105725761010080835404028352916020019161059d565b820191906000526020600020905b81548152906001019060200180831161058057829003601f168201915b5050505050908060010154908060020154905083565b60016020528060005260406000206000915090508060000154908060010160009054906101000a900460ff16905082565b606060008060009050600080600090505b60098054905081101561068d578260098281548110610617576106166110ba565b5b90600052602060002090600302016002015411156106805760098181548110610643576106426110ba565b5b90600052602060002090600302016002015492506009818154811061066b5761066a6110ba565b5b90600052602060002090600302016001015491505b80806001019150506105f5565b50600981815481106106a2576106a16110ba565b5b9060005260206000209060030201600001600982815481106106c7576106c66110ba565b5b9060005260206000209060030201600201548180546106e590611089565b80601f016020809104026020016040519081016040528092919081815260200182805461071190611089565b801561075e5780601f106107335761010080835404028352916020019161075e565b820191906000526020600020905b81548152906001019060200180831161074157829003601f168201915b505050505091509350935050509091565b6008818154811061077f57600080fd5b906000526020600020016000915054906101000a900473ffffffffffffffffffffffffffffffffffffffff1681565b60038060000180546107bf90611089565b80601f01602080910402602001604051908101604052809291908181526020018280546107eb90611089565b80156108385780601f1061080d57610100808354040283529160200191610838565b820191906000526020600020905b81548152906001019060200180831161081b57829003601f168201915b5050505050908060010154908060020154905083565b60008054906101000a900473ffffffffffffffffffffffffffffffffffffffff1673ffffffffffffffffffffffffffffffffffffffff163373ffffffffffffffffffffffffffffffffffffffff16146108dc576040517f08c379a00000000000000000000000000000000000000000000000000000000081526004016108d390611204565b60405180910390fd5b8160066000018190555080600660010160006101000a81548160ff0219169083151502179055506006600160008573ffffffffffffffffffffffffffffffffffffffff1673ffffffffffffffffffffffffffffffffffffffff168152602001908152602001600020600082015481600001556001820160009054906101000a900460ff168160010160006101000a81548160ff0219169083151502179055509050506008839080600181540180825580915050600190039060005260206000200160009091909190916101000a81548173ffffffffffffffffffffffffffffffffffffffff021916908373ffffffffffffffffffffffffffffffffffffffff160217905550505050565b60008054906101000a900473ffffffffffffffffffffffffffffffffffffffff1673ffffffffffffffffffffffffffffffffffffffff163373ffffffffffffffffffffffffffffffffffffffff1614610a74576040517f08c379a0000000000000000000000000000000000000000000000000000000008152600401610a6b90611204565b60405180910390fd5b8160036000019081610a8691906113d0565b50806003600101819055506003600260008573ffffffffffffffffffffffffffffffffffffffff1673ffffffffffffffffffffffffffffffffffffffff16815260200190815260200160002060008201816000019081610ae691906114b8565b50600182015481600101556002820154816002015590505060096003908060018154018082558091505060019003906000526020600020906003020160009091909190915060008201816000019081610b3f91906114b8565b5060018201548160010155600282015481600201555050505050565b60068060000154908060010160009054906101000a900460ff16905082565b6000604051905090565b600080fd5b600080fd5b600073ffffffffffffffffffffffffffffffffffffffff82169050919050565b6000610bb982610b8e565b9050919050565b610bc981610bae565b8114610bd457600080fd5b50565b600081359050610be681610bc0565b92915050565b600060208284031215610c0257610c01610b84565b5b6000610c1084828501610bd7565b91505092915050565b600081519050919050565b600082825260208201905092915050565b60005b83811015610c53578082015181840152602081019050610c38565b60008484015250505050565b6000601f19601f8301169050919050565b6000610c7b82610c19565b610c858185610c24565b9350610c95818560208601610c35565b610c9e81610c5f565b840191505092915050565b6000819050919050565b610cbc81610ca9565b82525050565b60006060820190508181036000830152610cdc8186610c70565b9050610ceb6020830185610cb3565b610cf86040830184610cb3565b949350505050565b60008060408385031215610d1757610d16610b84565b5b6000610d2585828601610bd7565b9250506020610d3685828601610bd7565b9150509250929050565b610d4981610bae565b82525050565b6000602082019050610d646000830184610d40565b92915050565b610d7381610ca9565b8114610d7e57600080fd5b50565b600081359050610d9081610d6a565b92915050565b600060208284031215610dac57610dab610b84565b5b6000610dba84828501610d81565b91505092915050565b60008115159050919050565b610dd881610dc3565b82525050565b6000604082019050610df36000830185610cb3565b610e006020830184610dcf565b9392505050565b60006040820190508181036000830152610e218185610c70565b9050610e306020830184610cb3565b9392505050565b610e4081610dc3565b8114610e4b57600080fd5b50565b600081359050610e5d81610e37565b92915050565b600080600060608486031215610e7c57610e7b610b84565b5b6000610e8a86828701610bd7565b9350506020610e9b86828701610d81565b9250506040610eac86828701610e4e565b9150509250925092565b600080fd5b600080fd5b7f4e487b7100000000000000000000000000000000000000000000000000000000600052604160045260246000fd5b610ef882610c5f565b810181811067ffffffffffffffff82111715610f1757610f16610ec0565b5b80604052505050565b6000610f2a610b7a565b9050610f368282610eef565b919050565b600067ffffffffffffffff821115610f5657610f55610ec0565b5b610f5f82610c5f565b9050602081019050919050565b82818337600083830152505050565b6000610f8e610f8984610f3b565b610f20565b905082815260208101848484011115610faa57610fa9610ebb565b5b610fb5848285610f6c565b509392505050565b600082601f830112610fd257610fd1610eb6565b5b8135610fe2848260208601610f7b565b91505092915050565b60008060006060848603121561100457611003610b84565b5b600061101286828701610bd7565b935050602084013567ffffffffffffffff81111561103357611032610b89565b5b61103f86828701610fbd565b925050604061105086828701610d81565b9150509250925092565b7f4e487b7100000000000000000000000000000000000000000000000000000000600052602260045260246000fd5b600060028204905060018216806110a157607f821691505b6020821081036110b4576110b361105a565b5b50919050565b7f4e487b7100000000000000000000000000000000000000000000000000000000600052603260045260246000fd5b7f616c726561647920766f74656400000000000000000000000000000000000000600082015250565b600061111f600d83610c24565b915061112a826110e9565b602082019050919050565b6000602082019050818103600083015261114e81611112565b9050919050565b7f4e487b7100000000000000000000000000000000000000000000000000000000600052601160045260246000fd5b600061118f82610ca9565b915061119a83610ca9565b92508282019050808211156111b2576111b1611155565b5b92915050565b7f756e617574686f72697a656420746f2070757368206368616e67657300000000600082015250565b60006111ee601c83610c24565b91506111f9826111b8565b602082019050919050565b6000602082019050818103600083015261121d816111e1565b9050919050565b60008190508160005260206000209050919050565b60006020601f8301049050919050565b600082821b905092915050565b6000600883026112867fffffffffffffffffffffffffffffffffffffffffffffffffffffffffffffffff82611249565b6112908683611249565b95508019841693508086168417925050509392505050565b6000819050919050565b60006112cd6112c86112c384610ca9565b6112a8565b610ca9565b9050919050565b6000819050919050565b6112e7836112b2565b6112fb6112f3826112d4565b848454611256565b825550505050565b600090565b611310611303565b61131b8184846112de565b505050565b5b8181101561133f57611334600082611308565b600181019050611321565b5050565b601f8211156113845761135581611224565b61135e84611239565b8101602085101561136d578190505b61138161137985611239565b830182611320565b50505b505050565b600082821c905092915050565b60006113a760001984600802611389565b1980831691505092915050565b60006113c08383611396565b9150826002028217905092915050565b6113d982610c19565b67ffffffffffffffff8111156113f2576113f1610ec0565b5b6113fc8254611089565b611407828285611343565b600060209050601f83116001811461143a5760008415611428578287015190505b61143285826113b4565b86555061149a565b601f19841661144886611224565b60005b828110156114705784890151825560018201915060208501945060208101905061144b565b8683101561148d5784890151611489601f891682611396565b8355505b6001600288020188555050505b505050505050565b6000815490506114b181611089565b9050919050565b8181036114c657505061159e565b6114cf826114a2565b67ffffffffffffffff8111156114e8576114e7610ec0565b5b6114f28254611089565b6114fd828285611343565b6000601f83116001811461152c576000841561151a578287015490505b61152485826113b4565b865550611597565b601f19841661153a87611224565b965061154586611224565b60005b8281101561156d57848901548255600182019150600185019450602081019050611548565b8683101561158a5784890154611586601f891682611396565b8355505b6001600288020188555050505b5050505050505b56fea2646970667358221220846eb60cd8d05aabb1886b98b88515dc27dee0240de411eee57b0ddbafc0f0dc64736f6c634300081c0033",
  "linkReferences": {},
  "deployedLinkReferences": {}
}